:020000040800F2
:100000000050002021020008270200082B020008EF
:100010009D020008A1020008E9020008000000009B
:100020000000000000000000000000003103000894
:10003000350300080000000039030008590C0008CF
:100040004D0300084D0300084D0300084D03000850
:100050004D0300084D030008A1080008BD08000872
:10006000D9080008F508000811090008E50700088C
:10007000FD07000815080008310800084D080008B1
:1000800069080008850800084D0300084D030008B2
:100090004D0300084D0300084D0300084D03000800
:1000A0004D0300084D0300084D0300084D030008F0
:1000B0004D0300084D0300084D0300084D030008E0
:1000C0004D0300084D0300084D0300084D030008D0
:1000D0004D0300084D0300084D0300084D030008C0
:1000E0004D0300084D0300084D0300080000000008
:1000F0000000000000000000000000000000000000
:1001000000000000000000005FF808F100B583B0B7
:1001100000F0AAF9304B314A1360314A1360314B79
:10012000314A32498B4204D21168196004330432D7
:10013000F7E72A4B1A682E4B9A4200D0FEE7284B6D
:100140001A682C4B9A42F9D1234B2B4A13602B4A45
:1001500013602B4B02E000221A600433294A9342B9
:10016000F9D3254B1B6813B9244B1B6803B1FEE779
:1001700000F086F9694601A800F022F9224C234BD1
:10018000E41AA4100025AC4214DC214C214BE41AE3
:10019000A4100025AC4213DC0099019800F036FE53
:1001A00005461D4C1D4BE41AA410002C0EDC2846FD
:1001B00000F0E2F8154B53F8253098470135E2E797
:1001C000144B53F8253098470135E3E7013C134BB6
:1001D00053F824309847E8E7BABADECA0000002096
:1001E000880000200000002010B800088C000020CB
:1001F00078563412325476988C0000208801002002
:100200008C0000208C01002078030008780300088F
:1002100078030008780300087803000878030008D2
:1002200008B5FFF773FF00BEFEE71EF0040F0CBF1A
:10023000EFF30880EFF309807146414A10472DE93A
:10024000F04182B004468846124B5E6B9F6B9D6AFC
:100250001B6B13F0020F03D00E4BDB6A002B0CDB81
:100260000D4800F0B5F8CDF800803B4632462946EF
:10027000204600F009F900BEFEE74BF6AB6100F046
:100280007DF90028ECD0034B4FF00042DA6202B057
:10029000BDE8F08100ED00E0B017000800BEFEE709
:1002A0001EF0040F0CBFEFF30880EFF309807146D6
:1002B000244A10472DE9F04182B004468846084B95
:1002C0005E6B9F6B9D6A074800F082F8CDF8008056
:1002D0003B4632462946204600F0D6F800BEFEE7EF
:1002E00000ED00E0C01700081EF0040F0CBFEFF394
:1002F0000880EFF309807146134A10472DE9F04159
:1003000082B004468846084B5E6B9F6B9D6A074827
:1003100000F05EF8CDF800803B4632462946204684
:1003200000F0B2F800BEFEE700ED00E0CC170008D8
:1003300000BEFEE700BEFEE700BEFEE7704700001D
:100340003F020008B5020008FD02000800BEFEE7FB
:1003500010B80008000000208C00002010B8000831
:1003600000000000000000008C0000208C01002034
:08037000000000000000000085
:10037800FEE7000008B503460C4A12685AB10B4A5A
:100388001068033323F003030344094A934206D851
:10039800064A136008BD054A06491160EFE700F0F8
:1003A80045FD0C2303604FF0FF30F3E79000002079
:1003B800004C00208C01002001230360014B0B60DE
:1003C800704700BF040000200FB400B583B004AB31
:1003D80053F8042B01938021064800F059FD0028AA
:1003E80003DD0146034800F037F803B05DF804EB7D
:1003F80004B07047980000202DE9F04385B004460A
:100408000F4643560BB10E461EE0042528462146EA
:10041800ABBE0446384605B0BDE8F08314F9011BAD
:1004280004AA1A4402F8101C0133AB42F6D304AAFA
:100438001344002203F8102C4FF00408E946404604
:100448004946ABBE8046761B002EE3D03546102EBB
:1004580028BF10250023E8E708B5FFF7CDFF08BD42
:1004680008B500F0FDF8024A024B9A6008BD00BFCB
:100478000000000800ED00E008B500F019F908BD1B
:10048800F8B504460D4617461E462748FFF79CFF59
:1004980021682648FFF798FF61682548FFF794FF11
:1004A800A1682448FFF790FFE1682348FFF78CFF15
:1004B80021692248FFF788FF61692148FFF784FF17
:1004C800A1692048FFF780FFE1691F48FFF77CFF1B
:1004D8001E48FFF779FF29461D48FFF775FF1D4C99
:1004E800E16A1D48FFF770FF216B1C48FFF76CFF9E
:1004F800E16B1B48FFF768FF15F0800F0AD115F470
:10050800004F0CD11748FFF75FFF06991648FFF711
:100518005BFFF8BD39461548FFF756FFEFE7314650
:100528001348FFF751FFEDE794160008A4160008DA
:10053800B4160008C4160008D4160008E41600080B
:10054800F4160008041700081417000824170008F8
:100558003017000800ED00E04017000850170008A9
:10056800601700089017000898170008701700080F
:100578008017000883691A888A4201D000207047D2
:100588000268033A012A03D80233836101207047C5
:100598000020704782B00023019300932C4A13680F
:1005A80043F4803313602A4B1B6803F40033009331
:1005B800019B01330193009B1BB9019BB3F5A06F0D
:1005C800F1D1234B1B6813F4003F06D0012300939D
:1005D800009B012B04D002B0704700230093F7E77B
:1005E8001C4B1A6842F010021A601A6822F00302C3
:1005F8001A601A6842F002021A60A3F580535A681A
:100608005A605A685A605A6842F480625A605A6856
:1006180022F47C125A605A6842F4E8125A601A6846
:1006280042F080721A600A4B1B6813F0007FFAD000
:10063800074B5A6822F003025A605A6842F00202D5
:100648005A60034B5B6803F00C03082BF9D1C2E72F
:10065800001002400020024008B5FFF79BFF08BDCC
:1006680008B5104B1A6842F001021A6059680E4A20
:100678000A405A601A6822F0847222F480321A60A2
:100688001A6822F480221A605A6822F4FE025A601C
:100698004FF41F029A60FFF7DFFF044B4FF0006230
:1006A8009A6008BD001002400000FFF800ED00E06D
:1006B8001F4B5B6803F00C03042B15D0082B17D0D5
:1006C8001BB11C4B1C4A1A6002E01A4B1A4A1A60EA
:1006D800174B5B68C3F30313184AD35CDAB21549A6
:1006E8000B68D3400B607047124B134A1A60EFE750
:1006F8000F4A53685268C3F38343023312F4803FAE
:100708000AD00B4A526812F4003F0BD00C4A02FB85
:1007180003F3084A1360DBE7094A02FB03F3054ABF
:100728001360D5E7044A02FB03F3024A1360CFE7DC
:10073800001002401C00002000127A000C0000206B
:1007480000093D00182832D8031F142B1DD8DFE8F4
:1007580003F0131C131C131C131C1C131C1C1C1C43
:100768001C1C1C1C1C1C0B0001F00701194A1368F7
:1007780043EA01611160704701F00301154A1368EB
:1007880001FA00F018431060704739B11148036846
:10079800012202FA01F11943016070470D4803680C
:1007A800012202FA01F123EA01010160704741B90F
:1007B80009480368012202FA01F123EA01010160F4
:1007C800704705480368012202FA01F119430160E4
:1007D800704700BF040001401C00014008B5034BEE
:1007E8001B689847024B0F225A6008BD1801002069
:1007F8000000024008B5034B5B689847024BF022A3
:100808005A6008BD180100200000024008B5044BDA
:100818009B689847034B4FF470625A6008BD00BF4D
:10082800180100200000024008B5044BDB68984717
:10083800034B4FF470425A6008BD00BF18010020F6
:100848000000024008B5044B1B699847034B4FF45E
:1008580070225A6008BD00BF180100200000024045
:1008680008B5044B5B699847034B4FF470025A6014
:1008780008BD00BF180100200000024008B5044B65
:100888009B699847034B4FF070625A6008BD00BFE0
:10089800180100200000024008B5044B1B68984767
:1008A800034A136843F00103136008BD34010020B4
:1008B8001404014008B5044B5B689847034A136861
:1008C80043F00203136008BD340100201404014002
:1008D80008B5044B9B689847034A136843F0040320
:1008E800136008BD340100201404014008B5044B0E
:1008F800DB689847034A136843F00803136008BD90
:10090800340100201404014008B5044B1B699847C2
:10091800034A136843F01003136008BD3401002034
:100928001404014010B4012827D018B1022847D078
:1009380010BC7047072912D90F29F9D8A1F108046A
:10094800E4B2314B1968A4000F20A04021EA00014D
:100958001960186802FA04F101431960E8E72B4BA3
:10096800186889000F248C4020EA04001860186871
:1009780002FA01F101431960DAE7072912D90F29B0
:10098800D6D8A1F10800C0B2214B196880000F2405
:10099800844021EA040119601C6802FA00F121432D
:1009A8001960C5E71B4B186889000F248C4020EAA2
:1009B80004001860186802FA01F101431960B7E7EA
:1009C800072912D90F29B3D8A1F10803DBB21248BD
:1009D80001689B000F249C4021EA0401016004681F
:1009E80002FA03F121430160A2E70C4B1868890061
:1009F8000F248C4020EA04001860186802FA01F1FC
:100A08000143196094E700BF040801400008014051
:100A1800040C0140000C014004100140001001408A
:100A2800012812D010B102281ED070473AB1012A0D
:100A380028D1012303FA01F1134B196070470123F0
:100A480003FA01F1114B196070473AB1012A19D123
:100A5800012303FA01F10E4B19607047012303FAD1
:100A680001F10C4B196070473AB1012A0AD10123F0
:100A780003FA01F1084B19607047012303FA01F1E9
:100A8800064B1960704700BF100801401408014068
:100A9800100C0140140C01401010014014100140CA
:100AA80008B5012808D010B102280AD008BD0221D3
:100AB800084600F029F8F9E70321022000F024F89D
:100AC800F4E70421022000F01FF8EFE70C4B4FF485
:100AD80080321A60043301221A60094B1B6813F430
:100AE800003FFAD0074B1A6842F010021A601A68E1
:100AF80042F480721A601A6842F400621A60704701
:100B080000100240041002401F291CD801280BD0F5
:100B180010B1022810D070470B480368012202FA6E
:100B280001F119430160704708480368012202FA7D
:100B380001F119430160704705480368012202FA70
:100B480001F1194301607047141002401C10024063
:100B58001810024030B1022806D8FE20034B23FAB1
:100B680000F07047FA20F9E70020F7E700127A0052
:100B7800024A136843EAC000106070470030014021
:100B880008B50D4B40F247321A600020FFF7F0FF1E
:100B980000210846FFF7D6FD092205210020FFF7AE
:100BA800C1FE042206210020FFF7BCFE092207210E
:100BB8000020FFF7B7FE08BD003001402DE9F041E5
:100BC80005460E4690461F46134B9B6813F0800F50
:100BD800FAD1114C636823F040036360636823F41F
:100BE80000636360636843F040036360002231463A
:100BF8002846FFF715FFC4F80C80074B9B6813F0D5
:100C0800800FFAD1044BDB683B700122314628463D
:100C1800FFF706FFBDE8F0810030014008B50C2160
:100C28000220FFF771FF08BD074B1A6822F0020285
:100C38001A601A6822F001021A600023034A13603E
:100C480004321360704700BF10E000E014E000E0D9
:100C580008B5064B1B782BB1054B1B689847054B0D
:100C68001B6808BDFFF7E0FFF6E700BF780100202A
:100C78007401002010E000E010B582B004460122A3
:100C880002210020FFF7CCFE0DF1070322460021C8
:100C98000846FFF793FF02B010BD10B582B00446B6
:100CA800002202211046FFF7BBFE0DF10703224682
:100CB80000210846FFF782FF02B010BD08B50222E6
:100CC80011460020FFF72EFE022201210020FFF727
:100CD80029FE022200210846FFF724FE01221146C0
:100CE8000020FFF79DFE012000F074F8002201218A
:100CF8001046FFF795FE012000F06CF8012211461E
:100D08000020FFF78DFE012000F064F80022012189
:100D18001046FFF785FE012000F05CF8012211461D
:100D28000020FFF77DFE962000F054F81120FFF711
:100D3800B4FF962000F04EF83A20FFF7AEFF0520EA
:100D4800FFF79AFF2920FFF7A8FF08BD38B5054629
:100D58002A20FFF7A2FF0020FFF78EFF0020FFF7F1
:100D68008BFF0020FFF788FF7F20FFF785FF2B20F0
:100D7800FFF793FF0020FFF77FFF0020FFF77CFFBE
:100D88000020FFF779FF9F20FFF776FF2C20FFF761
:100D980084FF00240AE035F81400000AFFF76CFF0E
:100DA80015F81400FFF768FF0134A4B2B4F5A04F9A
:100DB800F1D338BD08B50320FFF7CCFE034BA3FBE6
:100DC8000030000A024B188008BD00BFF1197605F3
:100DD8002000002082B00A4B1B8800FB03F0002192
:100DE800CDE90001DDE9002312F1FF3043F1FF31C5
:100DF800CDE90001002B08BF022AF3D202B07047E8
:100E08002000002008B5FFF761FEFFF7D3FF0020A0
:100E1800FFF746FEFFF702FFFFF7B2FEFFF74EFFB0
:100E28000148FFF793FFFEE7DC170008014B18683D
:100E3800704700BF2400002030B5141E05469BB043
:100E4800184605DA8B234FF0FF302B601BB030BDFE
:100E58004FF40273ADF80C300CBF234604F1FF3396
:100E6800029305934FF6FF7300910491ADF80E308D
:100E780002461E9B6946284600F072F8431CBCBF18
:100E88008B232B60002CE1D00022009B1A70DDE739
:100E980007B5009313460A46014603480068FFF762
:100EA800CBFF03B05DF804FB240000202DE9F047D8
:100EB8008E6882469E420C469046994637D88A8963
:100EC80012F4906F31D00223256809696F1A656999
:100ED80005EB450595FBF3F509F101033B449D42FC
:100EE80038BF1D46530530D5294600F035FB064668
:100EF80050B90C234FF0FF30CAF80030A38943F0F3
:100F08004003A381BDE8F0873A46216900F0B4FAAE
:100F1800A38923F4906343F08003A38126613E44B0
:100F280026604E466561ED1BA5604E4500D94E46CC
:100F380032464146206800F0AAFAA36800209B1BAD
:100F4800A36023681E442660DCE72A4600F05EFBA7
:100F580006460028E2D12169504600F0B1FAC8E7F8
:100F68002DE9F04F9DB003938B8980461D060C46F2
:100F780016460FD50B696BB9402100F0EDFA2060D9
:100F8800206128B90C23C8F800304FF0FF30C7E0C3
:100F9800402363610023099320238DF829303023EF
:100FA8004FF0010B8DF82A3037463D4615F8013BC6
:100FB8000BB1252B3ED1B7EB060A0BD05346324670
:100FC80021464046FFF772FF013000F0A480099BDC
:100FD800534409933B78002B00F09D8000234FF089
:100FE800FF32CDE90523049307938DF853301A9304
:100FF8002F46052217F8011B4F4800F02FFA049BD3
:10100800D0B9D90644BF20228DF853201A0744BF0F
:101018002B228DF853202A782A2A15D02F46002013
:101028000A25079A394611F8013B303B092B4DD95F
:10103800B8B10FE02F46B8E73F4A3D46801A0BFA91
:1010480000F018430490D3E7039A111D1268039126
:10105800002A01DB079204E0524243F002030792A0
:1010680004933B782E2B0CD17B782A2B33D1039B0E
:1010780002371A1D1B680392002BB8BF4FF0FF33CD
:1010880005932E4D03223978284600F0E7F938B148
:101098004023401B03FA00F0049B013703430493E9
:1010A8003978062226487E1C8DF8281000F0D6F9DB
:1010B800002838D0234B13BB039B073323F00703C7
:1010C80008330393099B4B4409936DE705FB0232F0
:1010D80001200F46A6E700230A2519460137059384
:1010E800384610F8012B303A092A03D9002BC8D00A
:1010F8000591C6E705FB012101230746F0E703AB8D
:1011080000932246104B04A94046AFF30080B0F18B
:10111800FF3F8146D6D1A3895B063FF536AF0998D4
:101128001DB0BDE8F08F03AB00932246064B04A91F
:10113800404600F081F8EAE7DCB70008E2B70008AB
:10114800E6B7000800000000B50E00082DE9F047DA
:1011580091461F468A680B6906469342B8BF1346F4
:10116800C9F8003091F843200C46DDF8208012B110
:101178000133C9F800302368990642BFD9F8003016
:101188000233C9F80030256815F0060507D104F1C7
:10119800190AE368D9F800209B1AAB4229DC94F8B5
:1011A80043302268003318BF012392062ED404F17D
:1011B800430239463046C047013021D02368E568EC
:1011C80003F00603042B18BF0025D9F800204FF0C0
:1011D800000908BFAD1AA368226908BF25EAE575AA
:1011E8009342C4BF9B1AED181A344D451AD10020FA
:1011F80008E00123524639463046C047013003D142
:101208004FF0FF30BDE8F0870135C2E73020E11824
:1012180081F843005A1C94F845102244023382F89E
:101228004310C4E70123224639463046C0470130FF
:10123800E6D009F10109D8E72DE9F04301F1430CA3
:101248000C46097E85B06E291746064698460C9AC4
:1012580000F0B38022D8632936D00AD8002900F0DC
:10126800B980582900F0838004F1420584F84210BF
:1012780032E0642901D06929F6D12068136805068F
:1012880003F104012AD51B681160002B03DA2D2213
:101298005B4284F843206F480A2239E0732900F042
:1012A8009D8008D86F2920D07029DDD1236843F0AC
:1012B8002003236003E0752917D07829D4D1782337
:1012C800654884F8453055E0136804F14205191D56
:1012D8001B68116084F8423001238CE01B6810F011
:1012E800400F116018BF1BB2CFE713682568181D9F
:1012F8001060280601D51B6802E06806FBD51B882C
:101308006F2914BF0A2208225248002184F843108A
:101318006568002DA560C0F29580216821F0040160
:101328002160002B3DD1002D40F08E806546082AB3
:101338000BD12368DB0708D5236962689A42DEBFB0
:10134800302305F8013C05F1FF35ACEB05032361BB
:10135800CDF800803B4603AA21463046FFF7F6FE4B
:1013680001304DD14FF0FF3005B0BDE8F08339486A
:1013780084F84510136821681D1D1B6815600A064E
:101388000BD5CA0744BF41F0200121601BB9226870
:1013980022F0200222601022B7E74D0648BF9BB218
:1013A800EFE76546B3FBF2F102FB1133C35C05F8C6
:1013B800013D0B460029F5D1B9E713682568181DCA
:1013C8006169106028061B6801D5196002E06A0689
:1013D800FBD51980002365462361B9E71368191DF9
:1013E80011601D6862680021284600F037F808B1CE
:1013F800401B606063682361002384F84330A7E7DB
:1014080023692A4639463046C0470130AAD02368A6
:101418009B0713D4E068039B9842B8BF1846A3E71C
:1014280001234A4639463046C04701309AD0013533
:10143800E368039A9B1AAB42F2DCEBE7002504F160
:101448001909F5E7002BACD1037804F1420584F8BB
:1014580042306CE7EDB70008FEB7000810B5C9B216
:1014680002449042034601D1002303E01C78013076
:101478008C42F6D1184610BD10B5431E0A4491425D
:1014880000D110BD11F8014B03F8014FF7E788426E
:1014980010B501EB020307D8421E99420AD011F891
:1014A800014B02F8014FF8E78342F5D98118D21AA7
:1014B800D34200D110BD13F8014D01F8014DF7E7F3
:1014C80038B50546002943D051F8043C0C1F002BC1
:1014D800B8BFE41800F0D0F81E4A1368104633B9B4
:1014E800636014602846BDE8384000F0C6B8A342DF
:1014F8000BD921686218934201BF1A685B685218B9
:10150800226063600460EDE713465A680AB1A2429C
:10151800FAD919685818A0420BD120680144581804
:1015280082421960DED110685268014419605A601D
:10153800D8E702D90C232B60D4E7206821188A4207
:1015480001BF116852680918216062605C60C9E7D0
:1015580038BD00BF7C01002070B5CD1C25F0030507
:1015680008350C2D38BF0C25002D064601DBA94295
:1015780003D90C233360002070BD00F07DF8214AA8
:101588001468214691B9204C23681BB9304600F0F5
:1015980063F820602946304600F05EF8431C24D1E9
:1015A8000C233046336000F068F8E4E70B685B1BF7
:1015B80018D40B2B0FD90B60CC18CD50304600F047
:1015C8005CF804F10B00231D20F00700C31AD3D0E8
:1015D8005A42E250D0E74B688C4216BF63601360F2
:1015E8000C46EBE70C464968CCE7C41C24F003041E
:1015F800A04205D0211A304600F02EF80130CFD095
:101608002560DBE77C01002080010020F8B5074653
:1016180014460E4621B9BDE8F8401146FFF79CBFB5
:1016280022B9FFF74DFF25462846F8BD00F026F8F9
:10163800A0420FD221463846FFF78EFF0546002804
:10164800F2D031462246FFF717FF31463846FFF7FA
:1016580037FFE9E73546E7E738B50023054C054687
:1016680008462360FEF786FE431C02D1236803B1B7
:101678002B6038BD840100207047704751F8043C46
:10168800181F002BBCBF0B58C018704753746163F8
:101698006B206672616D653A0A00000020523020A6
:1016A8003D2020253038580A000000002052312003
:1016B8003D2020253038580A0000000020523220F2
:1016C8003D2020253038580A0000000020523320E1
:1016D8003D2020253038580A0000000020523132C1
:1016E800203D20253038580A00000000204C5220A8
:1016F8003D2020253038580A0000000020504320A3
:101708003D2020253038580A000000002050535250
:10171800203D20253038580A000000004653522F3B
:101728004641523A0A0000002043465352203D20C9
:1017380020253038580A00002048465352203D20C2
:1017480020253038580A00002044465352203D20B6
:1017580020253038580A00002041465352203D20A9
:1017680020253038580A0000204D4D464152203D72
:1017780020253038580A00002042464152203D209A
:1017880020253038580A00004D6973630A000000AC
:10179800204C522F4558435F52455455524E3D20D8
:1017A800253038580A0000005B486172644661754C
:1017B8006C745D0A000000005B4275734661756CCD
:1017C800745D0A005B55736167654661756C745D8D
:1017D8000A000000000000000000000000000000F7
:1017E80000000000000000000000000000000000F1
:1017F80000000000000000000000000000000000E1
:1018080000000000000000000000000000000000D0
:1018180000000000000000000000000000000000C0
:1018280000000000000000000000000000000000B0
:1018380000000000000000000000000000000000A0
:10184800000000000000000000002000694AFFFFBF
:10185800FFFF6D6B0000200000002000000000006A
:101868002000000000000000000000000000000050
:101878000000000000000000000000000000000060
:101888000000000000000000000000000000000050
:101898000000000000000000000000000000000040
:1018A8000000000000000000000000000000000030
:1018B8000000000000000000000000000000000020
:1018C8000000000000000000000000000000000010
:1018D8000000000000000000000000000000000000
:1018E80000000000000000000000000000000000F0
:1018F80000000000000000000000000000000000E0
:1019080000000000000000000000000000000000CF
:1019180000000000000000000000000000000000BF
:1019280000000000000000000000000000000000AF
:10193800000000000000000000000000000000009F
:10194800000000000000000000000000F7BDFFFFDD
:10195800DFFFBAD600002000400000002000000091
:10196800000020000000000000000000000000004F
:10197800000000000000000000000000000000005F
:10198800000000000000000000000000000000004F
:10199800000000000000000000000000000000003F
:1019A800000000000000000000000000000000002F
:1019B800000000000000000000000000000000001F
:1019C800000000000000000000000000000000000F
:1019D80000000000000000000000000000000000FF
:1019E80000000000000000000000000000000000EF
:1019F80000000000000000000000000000000000DF
:101A080000000000000000000000000000000000CE
:101A180000000000000000000000000000000000BE
:101A280000000000000000000000000000000000AE
:101A3800000000000000000000000000000000009E
:101A480000000000200000000000000079CEFFFF29
:101A5800BEF7DFFFE73900000000000000000000CB
:101A6800000000000000000000000000000000006E
:101A7800000000000000000000000000000000005E
:101A8800000000000000000000000000000000004E
:101A9800000000000000000000000000000000003E
:101AA800000000000000000000000000000000002E
:101AB800000000000000000000000000000000001E
:101AC800000000000000000000000000000000000E
:101AD80000000000000000000000000000000000FE
:101AE80000000000000000000000000000000000EE
:101AF80000000000000000000000000000000000DE
:101B080000000000000000000000000000000000CD
:101B180000000000000000000000000000000000BD
:101B280000000000000000000000000000000000AD
:101B3800000000000000000000000000000000009D
:101B4800000000000000000020000000FBDEBEF7DF
:101B5800DBDEFFFF75AD00000000000000000000A4
:101B6800200000000000000000000000000000004D
:101B7800000000000000000000000000000000005D
:101B8800000000000000000000000000000000004D
:101B9800000000000000000000000000000000003D
:101BA800000000000000000000000000000000002D
:101BB800000000000000000000000000000000001D
:101BC800000000000000000000000000000000000D
:101BD80000000000000000000000000000000000FD
:101BE80000000000000000000000000000000000ED
:101BF80000000000000000000000000000000000DD
:101C080000000000000000000000000000000000CC
:101C180000000000000000000000000000000000BC
:101C280000000000000000000000000000000000AC
:101C3800000000000000000000000000000000009C
:101C4800000000000000000000000000B6B5DFFF43
:101C580038C69EF7FFFFC7392000000000000000CB
:101C6800000000000000000000000000000000006C
:101C7800000000000000000000000000000000005C
:101C8800000000000000000000000000000000004C
:101C9800000000000000000000000000000000003C
:101CA800000000000000000000000000000000002C
:101CB800000000000000000000000000000000001C
:101CC800000000000000000000000000000000000C
:101CD80000000000000000000000000000000000FC
:101CE80000000000000000000000000000000000EC
:101CF80000000000000000000000000000000000DC
:101D080000000000000000000000000000000000CB
:101D180000000000000000000000000000000000BB
:101D280000000000000000000000000000000000AB
:101D3800000000000000000000000000000000009B
:101D4800000000000000200000000000AA52FFFF71
:101D580079CE9AD6FFFFD6BD2000000000002000F3
:101D6800000000000000000000000000000000006B
:101D7800000000000000000000000000000000005B
:101D8800000000000000000000000000000000004B
:101D9800000000000000000000000000000000003B
:101DA800000000000000000000000000000000002B
:101DB800000000000000000000000000000000001B
:101DC800000000000000000000000000000000000B
:101DD80000000000000000000000000000000000FB
:101DE80000000000000000000000000000000000EB
:101DF80000000000000000000000000000000000DB
:101E080000000000000000000000000000000000CA
:101E180000000000000000000000000000000000BA
:101E280000000000000000000000000000000000AA
:101E3800000000000000000000000000000000009A
:101E4800000000000000000020000000CB5AFFFF47
:101E58009AD6BAD63CEFFFFF2842000000000000E7
:101E6800000000000000000000000000000000006A
:101E7800000000000000000000000000000000005A
:101E8800000000000000000000000000000000004A
:101E9800000000000000000000000000000000003A
:101EA800000000000000000000000000000000002A
:101EB800000000000000000000000000000000001A
:101EC800000000000000000000000000000000000A
:101ED80000000000000000000000000000000000FA
:101EE80000000000000000000000000000000000EA
:101EF80000000000000000000000000000000000DA
:101F080000000000000000000000000000000000C9
:101F180000000000000000000000000000000000B9
:101F280000000000000000000000000000000000A9
:101F38000000000000000000000000000000000099
:101F48000000000000002000000000008A52FFFF8F
:101F58009AD67DEFBAD6FFFFD6BD0000200000005C
:101F68000000000000000000000000000000000069
:101F78000000000000000000000000000000000059
:101F88000000000000000000000000000000000049
:101F98000000000000000000000000000000000039
:101FA8000000000000000000000000000000000029
:101FB8000000000000000000000000000000000019
:101FC8000000000000000000000000000000000009
:101FD80000000000000000000000000000000000F9
:101FE80000000000000000000000000000000000E9
:101FF80000000000000000000000000000000000D9
:1020080000000000000000000000000000000000C8
:1020180000000000000000000000000000000000B8
:1020280000000000000000000000000000000000A8
:102038000000000000000000000000000000000098
:102048000000000000002000200000008A52FFFF6E
:10205800DBDEDFFFFBDE5CEFFFFFE739000020007F
:102068000000000000000000000000000000000068
:102078000000000000000000000000000000000058
:102088000000000000000000000000000000000048
:102098000000000000000000000000000000000038
:1020A8000000000000000000000000000000000028
:1020B8000000000000000000000000000000000018
:1020C8000000000000000000000000000000000008
:1020D80000000000000000000000000000000000F8
:1020E80000000000000000000000000000000000E8
:1020F80000000000000000000000000000000000D8
:1021080000000000000000000000000000000000C7
:1021180000000000000000000000000000000000B7
:1021280000000000000000000000000000000000A7
:102138000000000000000000000000000000000097
:10214800000000000000000000000000AA52FFFF8D
:10215800BAD6BEF7BEF7BAD6DFFFF7BD200000003B
:102168000000000000000000000000000000000067
:102178000000000000000000000000000000000057
:102188000000000000000000000000000000000047
:102198000000000000000000000000000000000037
:1021A8000000000000000000000000000000000027
:1021B8000000000000000000000000000000000017
:1021C8000000000000000000000000000000000007
:1021D80000000000000000000000000000000000F7
:1021E80000000000000000000000000000000000E7
:1021F80000000000000000000000000000000000D7
:1022080000000000000000000000000000000000C6
:1022180000000000000000000000000000000000B6
:1022280000000000000000000000000000000000A6
:102238000000000000000000000000000000000096
:10224800000000000000000000000000AA52FFFF8C
:10225800DBDEDFFFFFFF1BDF7DEFFFFFA631200086
:102268000000000000000000000000000000000066
:102278000000000000000000000000000000000056
:102288000000000000000000000000000000000046
:102298000000000000000000000000000000000036
:1022A8000000000000000000000000000000000026
:1022B8000000000000000000000000000000000016
:1022C8000000000000000000000000000000000006
:1022D80000000000000000000000000000000000F6
:1022E80000000000000000000000000000000000E6
:1022F80000000000000000000000000000000000D6
:1023080000000000000000000000000000000000C5
:1023180000000000000000000000000000000000B5
:1023280000000000000000000000000000000000A5
:102338000000000000000000000000000000000095
:102348000000000000000000200000008A52FFFF8B
:10235800DBDE9EF7FFFF7DEFDAD6FFFF75AD0000ED
:102368000000000000000000000000000000000065
:102378000000000000000000000000000000000055
:102388000000000000000000000000000000000045
:102398000000000000000000000000000000000035
:1023A8000000000000000000000000000000000025
:1023B8000000000000000000000000000000000015
:1023C8000000000000000000000000000000000005
:1023D80000000000000000000000000000000000F5
:1023E80000000000000000000000000000000000E5
:1023F80000000000000000000000000000000000D5
:1024080000000000000000000000000000000000C4
:1024180000000000000000000000000000000000B4
:1024280000000000000000000000000000000000A4
:102438000000000000000000000000000000000094
:102448000000000000000000000000008A52FFFFAA
:10245800BAD67DEFDEF7FFFFDAD69DEFDEF724214F
:102468004000000000000000000000000000000024
:102478000000000000000000000000000000000054
:102488000000000000000000000000000000000044
:102498000000000000000000000000000000000034
:1024A8000000000000000000000000000000000024
:1024B8000000000000000000000000000000000014
:1024C8000000000000000000000000000000000004
:1024D80000000000000000000000000000000000F4
:1024E80000000000000000000000000000000000E4
:1024F80000000000000000000000000000000000D4
:1025080000000000000000000000000000000000C3
:1025180000000000000000000000000000000000B3
:1025280000000000000000000000000000000000A3
:102538000000000000000000000000000000000093
:102548000000000000000000000020008A52FFFF89
:10255800DBDE9EF7FFF7FFFF5CDFDAD6FFFF718453
:102568000000200000000000000000000000000043
:102578000000000000000000000000000000000053
:102588000000000000000000000000000000000043
:102598000000000000000000000000000000000033
:1025A8000000000000000000000000000000000023
:1025B8000000000000000000000000000000000013
:1025C8000000000000000000000000000000000003
:1025D80000000000000000000000000000000000F3
:1025E80000000000000000000000000000000000E3
:1025F80000000000000000000000000000000000D3
:1026080000000000000000000000000000000000C2
:1026180000000000000000000000000000000000B2
:1026280000000000000000000000000000000000A2
:102638000000000000000000000000000000000092
:102648000000000000000000000000008A52FFFFA8
:1026580018C6F7BDFAD678C679C658C6FFF73CDF64
:10266800C210200000000000000000000000000070
:102678000000000000000000000000000000000052
:102688000000000000000000000000000000000042
:102698000000000000000000000000000000000032
:1026A8000000000000000000000000000000000022
:1026B8000000000000000000000000000000000012
:1026C8000000000000000000000000000000000002
:1026D80000000000000000000000000000000000F2
:1026E80000000000000000000000000000000000E2
:1026F80000000000000000000000000000000000D2
:1027080000000000000000000000000000000000C1
:1027180000000000000000000000000000000000B1
:1027280000000000000000000000000000000000A1
:102738000000000000000000000000000000000091
:10274800000000000000000000000000AA52FFFF87
:102758009294AA521395549D349D75A51BDFFFF7DB
:102768008D6B000000000000000000000000000069
:102778000000000000000000000000000000000051
:102788000000000000000000000000000000000041
:102798000000000000000000000000000000000031
:1027A8000000000000000000000000000000000021
:1027B8000000000000000000000000000000000011
:1027C8000000000000000000000000000000000001
:1027D80000000000000000000000000000000000F1
:1027E80000000000000000000000000000000000E1
:1027F80000000000000000000000000000000000D1
:1028080000000000000000000000000000000000C0
:1028180000000000000000000000000000000000B0
:1028280000000000000000000000000000000000A0
:102838000000000000000000000000000000000090
:102848000000000000000000200020002C63DFFFD3
:1028580052844621AE631495759D95A517BEFEF763
:10286800F7BD0000000000000000000000000000AC
:102878000000200000000000000000000000000030
:102888000000000000000000000000000000000040
:102898000000000000000000000000000000000030
:1028A8000000000000000000000000000000000020
:1028B8000000000000000000000000000000000010
:1028C8000000000000000000000000000000000000
:1028D80000000000000000000000000000000000F0
:1028E80000000000000000000000000000000000E0
:1028F80000000000000000000000000000000000D0
:1029080000000000000000000000000000000000BF
:1029180000000000000000000000000000000000AF
:10292800000000000000000000000000000000009F
:10293800000000000000000000000000000000008F
:1029480000002000000000000000000059C6FFFF42
:102958008F6B6729082AAF63F7ADB6AD74A5DEF7AC
:10296800DEF7242100000100000000000000000044
:10297800200000000000000000000000000000002F
:10298800000000000000000000000000000000003F
:10299800000000000000000000000000000000002F
:1029A800000000000000000000000000000000001F
:1029B800000000000000000000000000000000000F
:1029C80000000000000000000000000000000000FF
:1029D80000000000000000000000000000000000EF
:1029E80000000000000000000000000000000000DF
:1029F80000000000000000000000000000000000CF
:102A080000000000000000000000000000000000BE
:102A180000000000000000000000000000000000AE
:102A2800000000000000000000000000000000009E
:102A3800000000002000000000000000200000004E
:102A48000000000020002000000041005DE79FF723
:102A58008B4A8729A7214A3AAF6BB6AD95AD37BEE9
:102A6800FFFF508C00000000000000002000000064
:102A7800000000000000000000000000000000004E
:102A8800000000000000000000000000000000003E
:102A9800000000000000000000000000000000002E
:102AA800000000000000000000000000000000001E
:102AB800000000000000000000000000000000000E
:102AC80000000000000000000000000000000000FE
:102AD80000000000000000000000000000000000EE
:102AE80000000000000000000000000000000000DE
:102AF80000000000000000000000000000000000CE
:102B080000000000000000000000000000000000BD
:102B180000000000000000000000000000000000AD
:102B2800000000000000000000000000000000009D
:102B3800000000000000000020000000000000006D
:102B4800200000000000000020004D63FFFF19BEB8
:102B5800A8316729A821E9310932107C18BEB6AD21
:102B6800DEF73CE7821020000000000000000000B3
:102B7800000000000000000000000000000000004D
:102B8800000000000000000000000000000000003D
:102B9800000000000000000000000000000000002D
:102BA800000000000000000000000000000000001D
:102BB800000000000000000000000000000000000D
:102BC80000000000000000000000000000000000FD
:102BD80000000000000000000000000000000000ED
:102BE80000000000000000000000000000000000DD
:102BF80000000000000000000000000000000000CD
:102C080000000000000000000000000000000000BC
:102C180000000000000000000000000000000000AC
:102C2800000000000000000000000000000000009C
:102C3800000000000000000000000000000000008C
:102C480000000000000000000000FCDEFFFF728CA6
:102C58002621E939A829C9292A3A293A349DD6B51D
:102C6800DAD6FFFF0C6300004108000000002000D6
:102C7800000000000000000000000000000000004C
:102C8800000000000000000000000000000000003C
:102C9800000000000000000000000000000000002C
:102CA800000000000000000000000000000000001C
:102CB800000000000000000000000000000000000C
:102CC80000000000000000000000000000000000FC
:102CD80000000000000000000000000000000000EC
:102CE80000000000000000000000000000000000DC
:102CF80000000000000000000000000000000000CC
:102D080000000000000000000000000000000000BB
:102D180000000000000000000000000000000000AB
:102D2800000000000000000000000000000000009B
:102D3800000000000000000000002100200000004A
:102D48000000000000000000EF7BDFFFFCDEC83160
:102D580046214621CA31A929C931E9310C5BB3940E
:102D6800D7B5FFFF79CE000000000000000020006A
:102D7800000000000000000000000000000000004B
:102D8800000000000000000000000000000000003B
:102D9800000000000000000000000000000000002B
:102DA800000000000000000000000000000000001B
:102DB800000000000000000000000000000000000B
:102DC80000000000000000000000000000000000FB
:102DD80000000000000000000000000000000000EB
:102DE80000000000000000000000000000000000DB
:102DF80000000000000000000000000000000000CB
:102E080000000000000000000000000000000000BA
:102E180000000000000000000000000000000000AA
:102E2800000000000000000000000000000000009A
:102E38000000000000002000000000000000010069
:102E4800000000000000694ABEF7FFFF3184252119
:102E5800A83167298929CA3148210A3AA8316E6BF5
:102E680055A57DEFFFFFAA520000200000000000DA
:102E7800000020000000000000000000000000002A
:102E8800000000000000000000000000000000003A
:102E9800000000000000000000000000000000002A
:102EA800000000000000000000000000000000001A
:102EB800000000000000000000000000000000000A
:102EC80000000000000000000000000000000000FA
:102ED80000000000000000000000000000000000EA
:102EE80000000000000000000000000000000000DA
:102EF80000000000000000000000000000000000CA
:102F080000000000000000000000000000000000B9
:102F180000000000000000000000000000000000A9
:102F28000000000000000000000000000000000099
:102F38000000000000004108000000004108E839D6
:102F48006A4A6A4AF39CDFFFFFFFBBD6C839E51817
:102F58004621472969296929CA31A9310A3A4A42C9
:102F6800CF7318BEFFFF58C62000200000000000E5
:102F78000000000000000000000000000000000049
:102F88000000000000000000000000000000000039
:102F98000000000000000000000000000000000029
:102FA8000000000000000000000000000000000019
:102FB8000000000000000000000000000000000009
:102FC80000000000000000000000000000000000F9
:102FD80000000000000000000000000000000000E9
:102FE80000000000000000000000000000000000D9
:102FF80000000000000000000000000000000000C9
:1030080000000000000000000000000000000000B8
:1030180000000000000000000000000000000000A8
:103028000000000000000000000000000000000098
:1030380000000000400800006108EF7BF8C5FFFFB2
:10304800FFFFFFFFFFFFFFFF9AD6AB52E4184629A8
:1030580005194621482169298929A9310A3A2A42AC
:10306800CC52B3947DEFFFFFE73920002000000029
:103078000000000000000000000000000000000048
:103088000000000000000000000000000000000038
:103098000000000000000000000000000000000028
:1030A8000000000000000000000000000000000018
:1030B8000000000000000000000000000000000008
:1030C80000000000000000000000000000000000F8
:1030D80000000000000000000000000000000000E8
:1030E80000000000000000000000000000000000D8
:1030F80000000000000000000000000000000000C8
:1031080000000000000000000000000000000000B7
:1031180000000000000000000000000000000000A7
:103128000000000000000000000000000000000097
:10313800200000000000C739FBDEFFFFDFFFFFFFB4
:103148003DE7DCDEBBD6B7BDC739C4188729C4182C
:10315800462147292821692989318929A931093A2C
:103168006B4A2D6339C6FFFFD6B50000000000008A
:103178000000000000000000000000000000000047
:103188000000000000000000000000000000000037
:103198000000000000000000000000000000000027
:1031A8000000000000000000000000000000000017
:1031B8000000000000000000000000000000000007
:1031C80000000000000000000000000000000000F7
:1031D80000000000000000000000000000000000E7
:1031E80000000000000000000000000000000000D7
:1031F80000000000000000000000000000000000C7
:1032080000000000000000000000000000000000B6
:1032180000000000000000000000000000000000A6
:103228000000000000000000000000000000000096
:103238000000000045299EF7FFFF5DEF5ACEF49C81
:103248001184528CD07BA73904210521E518262149
:103258002621062127214829692989316829C93960
:103268004B42293A107C9EEF9EEF2421000020005B
:103278000000000000000000000000000000000046
:103288000000000000000000000000000000000036
:103298000000000000000000000000000000000026
:1032A8000000000000000000000000000000000016
:1032B8000000000000000000000000000000000006
:1032C80000000000000000000000000000000000F6
:1032D80000000000000000000000000000000000E6
:1032E80000000000000000000000000000000000D6
:1032F80000000000000000000000000000000000C6
:1033080000000000000000000000000000000000B5
:1033180000000000000000000000000000000000A5
:103328000000000000000000000000000000000095
:1033380000006108F7BDFFFFFBDE92944E6BAF7390
:10334800D07B0D63A7310521462925210519672959
:1033580026210619272127214729A93188298829C3
:103368002A3A093A294259C6FFFF51840000000051
:103378002000000000000000000000000000000025
:103388000000000000000000000000000000000035
:103398000000000000000000000000000000000025
:1033A8000000000000000000000000000000000015
:1033B8000000000000000000000000000000000005
:1033C80000000000000000000000000000000000F5
:1033D80000000000000000000000000000000000E5
:1033E80000000000000000000000000000000000D5
:1033F80000000000000000000000000000000000C5
:1034080000000000000000000000000000000000B4
:1034180000000000000000000000000000000000A4
:103428000000000000000000000000000000200074
:1034380000000842FFFF1CE7518C2D639394F07B3A
:103448000D63873125216631E418C41846292621E1
:103458000621472106214729272168298929682922
:10346800C9310A3AC8315184FFFF1CDFE318000054
:103478000000000000000000000000000000000044
:103488000000000000000000000000000000000034
:103498000000000000000000000000000000000024
:1034A8000000000000000000000000000000000014
:1034B8000000000000000000000000000000000004
:1034C80000000000000000000000000000000000F4
:1034D80000000000000000000000000000000000E4
:1034E80000000000000000000000000000000000D4
:1034F80000000000000000000000000000000000C4
:1035080000000000000000000000000000000000B3
:1035180000000000000000000000000000000000A3
:103528000000000000000000000000000000200073
:1035380000002C63DFFF18C6EF7B728C728C294267
:10354800052105210521E520252126210519E51854
:103558000619262105214729062107218929A9318C
:10356800A931C931E939093ABACEFFFFAE73000073
:103578002000000000000000000000000000000023
:103588000000000000000000000000000000000033
:103598000000000000000000000000000000000023
:1035A8000000000000000000000000000000000013
:1035B8000000000000000000000000000000000003
:1035C80000000000000000000000000000000000F3
:1035D80000000000000000000000000000000000E3
:1035E80000000000000000000000000000000000D3
:1035F80000000000000000000000000000000000C3
:1036080000000000000000000000000000000000B2
:1036180000000000000000000000000000000000A2
:103628000000000000000000000000000000000092
:1036380000004D6BFFFFD39C518C35ADAF73C418A0
:103648002629052105214629052105210521E518F9
:103658002621062105212629262106216829CA3185
:10366800A931C931E9318729928CFFFF79CE200031
:103678000000200000000000000000000000000022
:103688000000000000000000000000000000000032
:103698000000000000000000000000000000000022
:1036A8000000000000000000000000000000000012
:1036B8000000000000000000000000000000000002
:1036C80000000000000000000000000000000000F2
:1036D80000000000000000000000000000000000E2
:1036E80000000000000000000000000000000000D2
:1036F80000000000000000000000000000000000C2
:1037080000000000000000000000000000000000B1
:1037180000000000000000000000000000000000A1
:103728000000000000000000000020000000000071
:1037380000002C63FFFF96B596B5D7BD728C873114
:10374800E51825210521E51826212621E518062159
:1037580006192721252105212629272148218929DC
:103768006929C931A829A731AB4A1CDFFFFF494A9B
:103778000000000000000000000000000000000041
:103788000000000000000000000000000000000031
:103798000000000000000000000000000000000021
:1037A8000000000000000000000000000000000011
:1037B8000000000000000000000000000000000001
:1037C80000000000000000000000000000000000F1
:1037D80000000000000000000000000000000000E1
:1037E80000000000000000000000000000000000D1
:1037F80000000000000000000000000000000000C1
:1038080000000000000000000000000000000000B0
:1038180000000000000000000000000000000000A0
:103828000000000000000000000000000000000090
:1038380000004D6BFFFF38CE57D616D653BD8A62AF
:10384800A4200721E7180619252124212421252150
:10385800062127210619262126212721472167210C
:103868008829A8298829E939662956ADFFFF75AD49
:103878000000000000000000000000000000000040
:103888000000000000000000000000000000000030
:103898000000000000000000000000000000000020
:1038A8000000000000000000000000000000000010
:1038B8000000000000000000000000000000000000
:1038C80000000000000000000000000000000000F0
:1038D80000000000000000000000000000000000E0
:1038E80000000000000000000000000000000000D0
:1038F80000000000000000000000000000000000C0
:1039080000000000000000000000000000000000AF
:10391800000000000000000000000000000000009F
:10392800000000000000000000000000000020006F
:1039380000002C63FFFF59CEB9E677DED5CD4D7B6D
:10394800E528E720072126212521442124212521B6
:10395800062127210619062126212621472147214C
:10396800672988298829A83146210D639EEF9EF78B
:1039780004210000200000002000000000000000DA
:10398800000000000000000000000000000000002F
:10399800000000000000000000000000000000001F
:1039A800000000000000000000000000000000000F
:1039B80000000000000000000000000000000000FF
:1039C80000000000000000000000000000000000EF
:1039D80000000000000000000000000000000000DF
:1039E80000000000000000000000000000000000CF
:1039F80000000000000000000000000000000000BF
:103A080000000000000000000000000000000000AE
:103A1800000000000000000000000000000000009E
:103A28000000000000000000000000000000410845
:103A380000002C63FFFF79D6FAE698E616D61094B4
:103A4800263107210721262125214421242125214A
:103A5800262107190621062126212621472147214B
:103A680047216721472987298729A731F8BDFFFF03
:103A7800718C000020000000000000000000000021
:103A8800000000000000000000000000000000002E
:103A9800000000000000000000000000000000001E
:103AA800000000000000000000000000000000000E
:103AB80000000000000000000000000000000000FE
:103AC80000000000000000000000000000000000EE
:103AD80000000000000000000000000000000000DE
:103AE80000000000000000000000000000000000CE
:103AF80000000000000000000000000000000000BE
:103B080000000000000000000000000000000000AD
:103B1800000000000000000000000000000000009D
:103B2800000000000000000000002000000000006D
:103B380000006D6BFFFFB9D6FAE698E637DE92A46F
:103B4800673907210721262125212521242105213F
:103B5800062107190621061906192621472147219A
:103B6800472147216729672946298729D07B9EF75E
:103B78007EEFC318000000000000000020000000D5
:103B8800000000000000000000000000000000002D
:103B9800000000000000000000000000000000001D
:103BA800000000000000000000000000000000000D
:103BB80000000000000000000000000000000000FD
:103BC80000000000000000000000000000000000ED
:103BD80000000000000000000000000000000000DD
:103BE80000000000000000000000000000000000CD
:103BF80000000000000000000000000000000000BD
:103C080000000000000000000000000000000000AC
:103C1800000000000000000000000000000000009C
:103C2800000000000000000000000000000020006C
:103C38002000EB5AFFFF1BE7FAEED9EE78E613B542
:103C480087390621272126212521252125212521DE
:103C580026192719061906190619062126214721AA
:103C6800262126212621872967298729E8397ACE1E
:103C7800FFFFF07B0000410800000000000000008A
:103C8800000000000000000000000000000000002C
:103C9800000000000000000000000000000000001C
:103CA800000000000000000000000000000000000C
:103CB80000000000000000000000000000000000FC
:103CC80000000000000000000000000000000000EC
:103CD80000000000000000000000000000000000DC
:103CE80000000000000000000000000000000000CC
:103CF80000000000000000000000000000000000BC
:103D080000000000000000000000000000000000AB
:103D1800000000000000000000000000000000009B
:103D2800000000000000000000000000000020006B
:103D3800000045297DEF3BE7D9E61AF7B9EE75BDD6
:103D4800094AE5202721262126212521252126216A
:103D580027212719262126212621262147214721E7
:103D68004721472126214721883146214629318488
:103D7800DFFF1CDF41080000000000000000000019
:103D8800000000000000000000000000000000002B
:103D9800000000000000000000000000000000001B
:103DA800000000000000000000000000000000000B
:103DB80000000000000000000000000000000000FB
:103DC80000000000000000000000000000000000EB
:103DD80000000000000000000000000000000000DB
:103DE80000000000000000000000000000000000CB
:103DF80000000000000000000000000000000000BB
:103E080000000000000000000000000000000000AA
:103E1800000000000000000000000000000000009A
:103E2800000000000000000000000000000000008A
:103E380000000000DBDE5CEFB9E63AF7B9EED6CD5C
:103E4800AB6206212621262126212521252126218E
:103E580027212719262127212721472147214721C3
:103E680047214721682926212621052167292A4239
:103E78009BCEDFFF2C630000000000000000000064
:103E8800000000000000000000000000000000002A
:103E9800000000000000000000000000000000001A
:103EA800000000000000000000000000000000000A
:103EB80000000000000000000000000000000000FA
:103EC80000000000000000000000000000000000EA
:103ED80000000000000000000000000000000000DA
:103EE80000000000000000000000000000000000CA
:103EF80000000000000000000000000000000000BA
:103F080000000000000000000000000000000000A9
:103F18000000000000000000000000000000000099
:103F28000000000000000000000000000000000089
:103F380000000000DBD6DEFFB9E63AF7B9EEF7D5A8
:103F48002D73662926212621062105210621062111
:103F58002619071926192621262126212621262158
:103F680026212721262167292621672905192621A7
:103F7800528CFFFFDBDE610800000000000000003B
:103F88000000200000000000000000000000000009
:103F98000000000000000000000000000000000019
:103FA8000000000000000000000000000000000009
:103FB80000000000000000000000000000000000F9
:103FC80000000000000000000000000000000000E9
:103FD80000000000000000000000000000000000D9
:103FE80000000000000000000000000000000000C9
:103FF80000000000000000000000000000000000B9
:1040080000000000000000000000000000000000A8
:104018000000000000000000000000000000000098
:104028000000000000000000000000000000000088
:1040380000000000149DFFFF99DE1AF7B9EE37DE85
:104048005194094A6729061906214729E5182621A6
:1040580006192619061926212621261906212621A0
:10406800272126212621262147214621051987298E
:104078006B4A1DDFDFFF4D6B0000000020000000D1
:104088000000000000000000000000000000000028
:104098000000000000000000000000000000000018
:1040A8000000000000000000000000000000000008
:1040B80000000000000000000000000000000000F8
:1040C80000000000000000000000000000000000E8
:1040D80000000000000000000000000000000000D8
:1040E80000000000000000000000000000000000C8
:1040F80000000000000000000000000000000000B8
:1041080000000000000000000000000000000000A7
:104118000000000000000000000000000000000097
:104128000000000000000000000000000000000087
:10413800000000002C63DEFFB9DE1AF7D9EED6CDF9
:10414800B6C58E73C8394721E518072126212721CE
:10415800261926192619261926190619062126218F
:104168002721472126212621472126212621A8313A
:10417800C931B494FFFF3CE7E31800004108000090
:104188000000000000000000000000000000000027
:104198000000000000000000000000000000000017
:1041A8000000000000000000000000000000000007
:1041B80000000000000000000000000000000000F7
:1041C80000000000000000000000000000000000E7
:1041D80000000000000000000000000000000000D7
:1041E80000000000000000000000000000000000C7
:1041F80000000000000000000000000000000000B7
:1042080000000000000000000000000000000000A6
:104218000000000000000000000000000000000096
:104228000000000000000000000000000000000086
:1042380000000000894AFFFFFAE6B9E61AF716D629
:10424800F6C5B29C87314721072106210621E618C9
:104258002619261926214721262126190621262135
:104268002721272127212721472126214729A8312E
:1042780047212A3ABBD6FFFFB2944108000020002C
:104288002000000000000000000000000000000006
:104298000000000000000000000000000000000016
:1042A8000000000000000000000000000000000006
:1042B80000000000000000000000000000000000F6
:1042C80000000000000000000000000000000000E6
:1042D80000000000000000000000000000000000D6
:1042E80000000000000000000000000000000000C6
:1042F80000000000000000000000000000000000B6
:1043080000000000000000000000000000000000A5
:104318000000000000000000000000000000000095
:104328000000000000000000000000000000000085
:1043380000000000A2085CEFBEFF58DED9EEB9E627
:10434800F6C575B5E839262168290721E62006193A
:104358002621261926192619261926190621262165
:10436800272127212721272147212721472168297C
:1043780027210619CF7BDFFFFFFFA73100002000B0
:1043880000004008000000000000000000000000DD
:104398000000000000000000000000000000000015
:1043A8000000000000000000000000000000000005
:1043B80000000000000000000000000000000000F5
:1043C80000000000000000000000000000000000E5
:1043D80000000000000000000000000000000000D5
:1043E80000000000000000000000000000000000C5
:1043F80000000000000000000000000000000000B5
:1044080000000000000000000000000000000000A4
:104418000000000000000000000000000000000094
:104428000000000000000000000000000000000084
:10443800000000000000F39CDEFF78DE99E699E6B4
:10444800F6C538CECF7B6731482927290721472968
:1044580046210519E510E5180619261926212621F1
:104468004721472147212721472147214721472124
:10447800682127216731D8BDFFFF1DE7C418000058
:104488000000000000000000000000000000000024
:104498000000000000000000000000000000000014
:1044A8000000000000000000000000000000000004
:1044B80000000000000000000000000000000000F4
:1044C80000000000000000000000000000000000E4
:1044D80000000000000000000000000000000000D4
:1044E80000000000000000000000000000000000C4
:1044F80000000000000000000000000000000000B4
:1045080000000000000000000000000000000000A3
:104518000000000000000000000000000000000093
:104528000000000000000000000000000000000083
:10453800000000006100083ADEFF1BF758DE98E62D
:1045480094BD58CEB7B52A4207212829072127212B
:104558000619051906190619262147214721472159
:10456800472147216729272127214721472127213B
:104578006821482167318B52DCDEFFFFD8BD20005F
:104588002000000000000000000000000000000003
:104598000000000000000000000000000000000013
:1045A8000000000000000000000000000000000003
:1045B80000000000000000000000000000000000F3
:1045C80000000000000000000000000000000000E3
:1045D80000000000000000000000000000000000D3
:1045E80000000000000000000000000000000000C3
:1045F80000000000000000000000000000000000B3
:1046080000000000000000000000000000000000A2
:104618000000000000000000000000000000000092
:104628000000000000000000000000000000000082
:104638000000000000006108DADEDEFF58DEB9E69F
:10464800D5C5D6BD18C6ED5A07210729E720E620AB
:1046580005192519262126214721472147212621E9
:104668002621272127214721272147214721482182
:1046780047214821472987316F739FF7DFFFD39C74
:104688002000000000000000000000000000000002
:104698000000000000000000000000000000000012
:1046A8000000000000000000000000000000000002
:1046B80000000000000000000000000000000000F2
:1046C80000000000000000000000000000000000E2
:1046D80000000000000000000000000000000000D2
:1046E80000000000000000000000000000000000C2
:1046F80000000000000000000000000000000000B2
:1047080000000000000000000000000000000000A1
:104718000000000000000000000000000000000091
:104728000000000000000000000000000000000081
:1047380000000000610000004C6BFEFFDAEEF6CDD1
:1047480016CEB5BD96B58F732729E72007292729E7
:104758006729251906190619061926192621061981
:1047680006190621061948294721272127216821EA
:10477800271948216729873147297394DFFFFFFFED
:10478800108400000000000000000000000000008D
:104798000000000000000000000000000000000011
:1047A8000000000000000000000000000000000001
:1047B80000000000000000000000000000000000F1
:1047C80000000000000000000000000000000000E1
:1047D80000000000000000000000000000000000D1
:1047E80000000000000000000000000000000000C1
:1047F80000000000000000000000000000000000B1
:1048080000000000000000000000000000000000A0
:104818000000000000000000000000000000000090
:104828000000000000000000000000000000000080
:1048380000000000000020006110FCE6DFFF38CE19
:10484800B5BDD5BDF6C5D29CA7312621272147295C
:104858002721061905190519051905190519061934
:104868000619061927214721272126212621262135
:10487800472167292721C93188298929169DBFF72A
:10488800FFFF30840000000000000000000000006E
:10489800000001000000000000000000000000000F
:1048A8000000000000000000000000000000000000
:1048B80000000000000000000000000000000000F0
:1048C80000000000000000000000000000000000E0
:1048D80000000000000000000000000000000000D0
:1048E80000000000000000000000000000000000C0
:1048F80000000000000000000000000000000000B0
:10490800000000000000000000000000000000009F
:10491800000000000000000000000000000000008F
:10492800000000000000000000000000000000007F
:10493800000000002000000000002D6BBFFF7CEF8E
:10494800B5B5D5BD78CE34A5A73147298831061924
:104958004721262105190519051926214721472927
:1049680068296829472147214721472147214721AD
:104978004721472168292721482968216829B8B58E
:10498800FFFFFFFFCF7B00000000000000002000B9
:10499800000000000000000000000000000000000F
:1049A80000000000000000000000000000000000FF
:1049B80000000000000000000000000000000000EF
:1049C80000000000000000000000000000000000DF
:1049D80000000000000000000000000000000000CF
:1049E80000000000000000000000000000000000BF
:1049F80000000000000000000000000000000000AF
:104A0800000000000000000000000000000000009E
:104A1800000000000000000000000000000000008E
:104A2800000000000000000000000000000000007E
:104A3800000000000000200000002108DBDEDEFF8F
:104A480057CEB5B558CE75AD09420621682927213C
:104A5800272147212621262126212621472167298A
:104A68006829682968294721472147214729472973
:104A7800472947296829682968294821A929C93166
:104A8800F9BDFFFFDFFF2842000000002000000002
:104A9800000000000000000000000000000000000E
:104AA80000000000000000000000000000000000FE
:104AB80000000000000000000000000000000000EE
:104AC80000000000000000000000000000000000DE
:104AD80000000000000000000000000000000000CE
:104AE80000000000000000000000000000000000BE
:104AF80000000000000000000000000000000000AE
:104B0800000000000000000000000000000000009D
:104B1800000000000000000000000000000000008D
:104B2800000000000000000000000000000000007D
:104B3800000000002000000000000000294AFFFFDC
:104B48007CEF16C637C658CEEC5A06216829682964
:104B5800472147214721472146214721472127212E
:104B680027212721472147214721472167216729F5
:104B780067296729882947216829A9298929A93105
:104B88002A42D8B5FFFF3CE7E318000020000000E8
:104B980021000000000000000000000000000000EC
:104BA80000000000000000000000000000000000FD
:104BB80000000000000000000000000000000000ED
:104BC80000000000000000000000000000000000DD
:104BD80000000000000000000000000000000000CD
:104BE80000000000000000000000000000000000BD
:104BF80000000000000000000000000000000000AD
:104C0800000000000000000000000000000000009C
:104C1800000000000000000000000000000000008C
:104C2800000000000000000000000000000000007C
:104C3800000000000000400000000000000075AD0A
:104C4800FFFF1AE7B5B559CEAF73E6188831482982
:104C5800A9314721462147214721472127212721DB
:104C680047214721472147216829672147214721B3
:104C78006721682947298831482989296829892984
:104C8800C9310E63FDDEBFF77294200000000000FA
:104C9800000000000000000000000000000000000C
:104CA80000000000000000000000000000000000FC
:104CB80000000000000000000000000000000000EC
:104CC80000000000000000000000000000000000DC
:104CD80000000000000000000000000000000000CC
:104CE80000000000000000000000000000000000BC
:104CF80000000000000000000000000000000000AC
:104D0800000000000000000000000000000000009B
:104D1800000000000000000000000000000000008B
:104D2800000000000000000000000000000000007B
:104D38000000000000000000000021000100242104
:104D48001BE7DEFF17C655ADB494682968296829A2
:104D580068218829472147214721472147214721A1
:104D6800472147292721472168294721472127210A
:104D780047216721472988298929A9318929CA31E1
:104D88008929A9313284DFFF5DEF6210000000003D
:104D9800000000000000000000000000000000000B
:104DA80000000000000000000000000000000000FB
:104DB80000000000000000000000000000000000EB
:104DC80000000000000000000000000000000000DB
:104DD80000000000000000000000000000000000CB
:104DE80000000000000000000000000000000000BB
:104DF80000000000000000000000000000000000AB
:104E0800000000000000000000000000000000009A
:104E1800000000000000000000000000000000008A
:104E2800000000000000000000000000000000007A
:104E38000000000020000000000000002100000029
:104E4800CA5AFFFF9DF796B5D8BD0E636829A931E8
:104E580027196829672147214721472147214721E9
:104E6800472127212721472147214721272127217A
:104E7800472147216729472168294821AA31AA31B2
:104E880089290B422F63BBD6DFFF494A000041083E
:104E980000004100000000000000000000000000C9
:104EA80000000000000000000000000000000000FA
:104EB80000000000000000000000000000000000EA
:104EC80000000000000000000000000000000000DA
:104ED80000000000000000000000000000000000CA
:104EE80000000000000000000000000000000000BA
:104EF80000000000000000000000000000000000AA
:104F08000000000000000000000000000000000099
:104F18000000000000000000000000000000000089
:104F28000000000000000000000000000000000079
:104F38000000000000000000000001000000010067
:104F4800200017BEFFFF39C677AD9594282189291F
:104F5800C93147216829472127214721482968293C
:104F680047292721272127212721272127212721D1
:104F780047214821672988294829692969298A29CF
:104F88000B3AAD520E5BD8BDFFFFCB5A00000000B4
:104F980040000000000000000000000000000000C9
:104FA80000000000000000000000000000000000F9
:104FB80000000000000000000000000000000000E9
:104FC80000000000000000000000000000000000D9
:104FD80000000000000000000000000000000000C9
:104FE80000000000000000000000000000000000B9
:104FF80000000000000000000000000000000000A9
:105008000000000000000000000000000000000098
:105018000000000000000000000020000000000068
:10502800000000000C63EF83AE7BAE7BAE73CE7BDB
:1050380065290000000020000000010000000000B9
:1050480000002842FFFF1CDFD8B578AD6C4A07196D
:10505800882988296721672168216821472927210C
:105068000721062107210721272148292721472130
:10507800071947214721272168298929AA31AA31F7
:105088004D428D4ACE5AF59CFFFFAA5200000000FF
:105098000000000000000000000000000000000008
:1050A80000000000000000000000000000000000F8
:1050B80000000000000000000000000000000000E8
:1050C80000000000000000000000000000000000D8
:1050D80000000000000000000000000000000000C8
:1050E80000000000000000000000000000000000B8
:1050F80000000000000000000000000000000000A8
:105108000000000000000000000000000000000097
:10511800000000000000000020080000000000005F
:10512800242196B5FFFFDFFFFFFFBEFFFFFFFFFF54
:105138009DF737C6A95200000000000001000100D9
:105148000000200099CEFFFF19BE3BC634844821D9
:10515800272168296829682947212721272127210C
:105168000621E6180621E6182721A93168294721D2
:10517800272168296729A931A9318929CB310C3A16
:105188002C424D42CD52D59CDFFF8A5200000000D0
:105198000000000000000000000000000000000007
:1051A80000000000000000000000000000000000F7
:1051B80000000000000000000000000000000000E7
:1051C80000000000000000000000000000000000D7
:1051D80000000000000000000000000000000000C7
:1051E80000000000000000000000000000000000B7
:1051F80000000000000000000000000000000000A7
:105208000000000000000000000000000000000096
:105218000000000000080000000020004000C2104C
:10522800BAD6FFFFDFFF39D634B555BD18CEFBEE31
:10523800DEFFFFFFFFFF34A5252900000000000066
:1052480000000000EF7BDFF7D9BD3CC699AD0B3AF3
:10525800C61068294721472127210721272127210F
:1052680027210621E6180B4289316829EA39C93114
:105278006821A9298831EA39AA318A29CB31EC3940
:10528800EB314C42907377ADFFFFAA52000000004B
:105298000000000000000000000000000000000006
:1052A80000000000000000000000000000000000F6
:1052B80000000000000000000000000000000000E6
:1052C80000000000000000000000000000000000D6
:1052D80000000000000000000000000000000000C6
:1052E80000000000000000000000000000000000B6
:1052F80000000000000000000000000000000000A6
:105308000000000000000000000000000000000095
:10531800000000000000000000000000000055A58B
:10532800FFFF5CEF96BD519C8E83AE8B109450941A
:10533800F2A478D6BDFFFFFF1CE7E8412108000072
:105348000000000075ADFFFF1ABE1BC65CC6D27315
:10535800C610E61827214721472127212721482958
:1053680068294729C939706B4C4A6829C939CA392B
:10537800682968218831C9318931AA31AB31CB31EB
:10538800EB39CE52F27397ADFFFF8A52000000004E
:105398000000000000000000000000000000000005
:1053A80000000000000000000000000000000000F5
:1053B80000000000000000000000000000000000E5
:1053C80000000000000000000000000000000000D5
:1053D80000000000000000000000000000000000C5
:1053E80000000000000000000000000000000000B5
:1053F80000000000000000000000000000000000A5
:105408000000000000000000000000000000000094
:1054180000000000000000002000000040001CDF29
:10542800FFFF96BD929C8E83F093AE8B509CEE8BC3
:105438008D830F8C74B55CEFDFFFDFFF0D6B000011
:1054480020000421DFFFBFF7D9B5FBBD1BBE379D88
:10545800C931E510072147214729472947296829E4
:10546800672947296829EA41682947290621272108
:1054780089314829682968296929CB31AA31EC3949
:105488008D4A2F5BD17377ADFFFF8A520000000071
:105498000000000000000000000000000000000004
:1054A80000000000000000000000000000000000F4
:1054B80000000000000000000000000000000000E4
:1054C80000000000000000000000000000000000D4
:1054D80000000000000000000000000000000000C4
:1054E80000000000000000000000000000000000B4
:1054F80000000000000000000000000000000000A4
:105508000000000000000000000000000000000093
:10551800000000000000000020000000C310DFF7BA
:105528003CE734AD519C4D83F09B50A4AE93CE9391
:10553800CE8B709C7094D2A4DBE6BFFFBFFFF083D4
:1055480000006D6BFFFF5ACE169D79AD99ADFBBD7E
:10555800B1730619E61806190621272127292729D4
:1055680027292729472948290721472906212721AB
:1055780068296829682968298931CA31CB312C3AC8
:10558800AE4AEE52B06B56A5FFFFAA5200000000CB
:105598000000000000000000000000000000000003
:1055A80000000000000000000000000000000000F3
:1055B80000000000000000000000000000000000E3
:1055C80000000000000000000000000000000000D3
:1055D80000000000000000000000000000000000C3
:1055E80000000000000000000000000000000000B3
:1055F80000000000000000000000000000000000A3
:105608000000000000000000000000000000000092
:105618000000000000000000000000000419FFFF67
:105628003CEF34B5F3ACAE8B0C8371ACCE9370A465
:10563800509CD1ACB09C709CF3A49ADEFFFFBFFFD6
:1056480014A5DBDEFFFFD8BDF69C38A579AD1BBEDF
:1056580099AD4B420619E618E618062106210621DF
:1056680006210629A5180621E620062127216829F2
:1056780068298929683189318A318A29CB31EB3106
:105688006C42AD4A6F63159DDFF78A520000000037
:105698000000000000000000000000000000000002
:1056A80000000000000000000000000000000000F2
:1056B80000000000000000000000000000000000E2
:1056C80000000000000000000000000000000000D2
:1056D80000000000000000000000000000000000C2
:1056E80000000000000000000000000000000000B2
:1056F80000000000000000000000000000000000A2
:105708000000000000000000000000000000000091
:10571800000000000000000000000000C2107DEF43
:105728001BE775BDF3AC51A44D8B51AC71ACF2B411
:10573800F2B4F2B412ADB19CB29C55B559D6DFFFA4
:10574800FFFFFFFF3DE7159D37A538A5F79CF79CA0
:105758007CCE78A568290621E61806212729062186
:10576800E620E6200629E62007214729E6204729E2
:10577800482927216829893189296929CB318A292A
:105788000B3AEE52F17397ADFFFFAA5200000000EA
:105798000000000000000000000000000000000001
:1057A80000000000000000000000000000000000F1
:1057B80000000000000000000000000000000000E1
:1057C80000000000000000000000000000000000D1
:1057D80000000000000000000000000000000000C1
:1057E80000000000000000000000000000000000B1
:1057F80000000000000000000000000000000000A1
:105808000000000000000000000000000000000090
:1058180000000000200000002000000000009AD6D0
:10582800DFFF39D696BD14B5519C71A4B2AC13BD37
:1058380013BD74CD75C5F3B4B2ACB2A475BD59D659
:105848003DEF5EEF57ADF69CF79CF79C189D389D91
:1058580059A51CBE75940729A518A9416739673948
:10586800A841A741C849C8490952A841E949E94995
:105878004B52EA49A939A9398C5A8C5AAC5A0D634A
:10588800CB5A8E7375B5D7BDFFFFAA520000000032
:1058980000002000000000000000000000000000E0
:1058A80000000000000000000000000000000000F0
:1058B80000000000000000000000000000000000E0
:1058C80000000000000000000000000000000000D0
:1058D80000000000000000000000000000000000C0
:1058E80000000000000000000000000000000000B0
:1058F80000000000000000000000000000000000A0
:10590800000000000000000000000000000000008F
:105918000000000000002000200000000000B7BDCB
:105928009EF7BBDE18CE14AD92A434BDD6D595CD66
:1059380012BD12BD95CD13BD54C533B5F3AC55B5E5
:1059480059D65ACEF5A4D59CF79CF79C189D189566
:10595800189DBAAD5CCED27B272927290A4A2A523C
:105968006B5A6A62AB62AB62EC6A0D6B0D6B0D6BC6
:105978006F732F73EA410A427073F183328C528C31
:10598800318455AD1CE738CEFFFFAA520000200035
:1059980000000000000000000000000000000000FF
:1059A80000000000000000000000000000000000EF
:1059B80000000000000000000000000000000000DF
:1059C80000000000000000000000000000000000CF
:1059D80000000000000000000000000000000000BF
:1059E80000000000000000000000000000000000AF
:1059F800000000000000000000000000000000009F
:105A0800000000000000000000000000000000008E
:105A18000000000000000000000000000000AB5A79
:105A2800FFFFFCE6F4A492A475BD54BDD6CD58E69C
:105A380016DE74CD75CD95CD75CDF2B491A4B2A412
:105A4800D7C5FCE6B8BD78AD37A5179D179DF79467
:105A5800F794389D1CBEBAB50F634729C9418B5AC4
:105A68008B622952495A6A62AB6A4E7BCC62AC623D
:105A78002E6B2E6BEA410B429073F17B3284728C51
:105A8800F07BF49CFBDE96B5BEF7AA52000000003E
:105A980000000000000000000000000000000000FE
:105AA80000000000000000000000000000000000EE
:105AB80000000000000000000000000000000000DE
:105AC80000000000000000000000000000000000CE
