:020000040800F2
:1000000000500020C5010008C9010008CB0100080C
:10001000E1010008E3010008F90100080000000008
:100020000000000000000000000000000F020008B7
:100030001102000800000000130200080508000873
:1000400029020008290200082902000829020008E4
:100050002902000829020008F5030008110400081D
:100060002D0400084904000865040008290200085E
:1000700029020008290200082902000829020008B4
:1000800029020008290200082902000829020008A4
:100090002902000829020008290200082902000894
:1000A0002902000829020008290200082902000884
:1000B0002902000829020008290200082902000874
:1000C0002902000829020008290200082902000864
:1000D0002902000829020008290200082902000854
:1000E0002902000829020008290200080000000077
:1000F0000000000000000000000000000000000000
:1001000000000000000000005FF808F107B500F0F3
:10011000ADF8214A214B22498B4226D30021214BA5
:10012000214A934226D300F0ADF801A9684600F0B9
:1001300095F800251D4E1E4CA41BA410AC421CDCDF
:1001400000251C4E1C4CA41BA410AC421ADCDDE99B
:10015000000100F075FB0646184D194C641BA410F5
:10016000002C14DC304600F075F852F8040F43F808
:10017000040BD1E743F8041BD3E756F82530984722
:100180000135DBE756F8253098470135DDE7013CBE
:1001900055F824309847E3E7A40800080000002041
:1001A0001C0000201C0000208C00002054020008CD
:1001B00054020008540200085402000854020008C7
:1001C0005402000814480047FEE71EF0040F0CBF5D
:1001D000EFF30880EFF309807146104A1047FEE7FD
:1001E000FEE71EF0040F0CBFEFF30880EFF3098069
:1001F00071460B4A1047FEE71EF0040F0CBFEFF3E9
:100200000880EFF309807146064A1047FEE7FEE7D3
:10021000FEE7FEE7704700000D010008DF0100085F
:0A022000F70100080D020008FEE7D8
:10022C00A8080008000000201C000020A8080008F6
:10023C0000000000000000001C0000208C000020CA
:08024C000000000000000000AA
:1002540008B500F017F8000001230360014B0B60A0
:10026400704700BF0000002008B500F01DF8024AE6
:10027400024B9A6008BD00BF0000000800ED00E0DA
:1002840000F08AB8BFF34F8F0549064BCA6802F4E1
:10029400E0621343CB60BFF34F8F00BFFDE700BFA5
:1002A40000ED00E00400FA05374B82B01A6842F012
:1002B40001021A605968354A0A405A601A6822F0E5
:1002C400847222F480321A601A6822F480221A603E
:1002D4005A6822F4FE025A604FF41F029A60002208
:1002E400009201921A6842F480321A601A6802F489
:1002F40000320192009A01320092019A1AB9009ACE
:10030400B2F5A06FF2D11A6812F4003218BF0122BC
:100314000192019A012A30D11D4A116841F010015D
:100324001160116821F003011160116841F00201AC
:1003340011605A685A605A685A605A6842F4806276
:100344005A605A6822F47C125A605A6842F4E812DD
:100354005A601A6842F080721A601A689201FCD5D9
:100364005A6822F003025A605A6842F002025A6044
:100374005A6802F00C02082AFAD14FF00062054BC9
:100384009A6002B0704700BF001002400000FFF8FE
:100394000020024000ED00E0104B11495A6802F0C1
:1003A4000C02082A0AD00F4A0A605B680E4AC3F39B
:1003B4000313D25C0B68D3400B6070475A685868CB
:1003C400C2F38342C00302F1020202D4074842434B
:1003D400EAE758688003F9D40248F8E700100240BD
:1003E4001800002000127A000800002000093D00D7
:1003F40008B5044B1B689847034A136843F001038C
:10040400136008BD200000201404014008B5044B0B
:100414005B689847034A136843F00203136008BDFE
:10042400200000201404014008B5044B9B68984741
:10043400034A136843F00403136008BD200000203E
:100444001404014008B5044BDB689847034A136859
:1004540043F00803136008BD200000201404014089
:1004640008B5044B1B699847034A136843F010030B
:10047400136008BD2000002014040140012870B559
:1004840026D002D3022844D070BD07290DD88E008F
:100494000F21314CB140236823EA01032360236810
:1004A40002FA06F119432160EEE70F29ECD8A1F115
:1004B40008000F21294CC0B223688000814023EA40
:1004C40001032360236802FA00F018432060DBE78D
:1004D40007290BD88D000F21214CA940236823EA5A
:1004E40001032360236802FA05F1DBE70F29CBD867
:1004F400A1F108030F211B48DBB204689B0099405B
:1005040024EA01010160016802FA03F30B4303606A
:10051400BAE707290DD88C000F21134DA1402B6891
:1005240023EA01032B602B6802FA04F10B432B60CE
:10053400AAE70F29A8D80F240C4B0839C9B21868A8
:1005440089008C4020EA04001860186802FA01F15E
:100554000143196098E700BF000801400408014006
:10056400000C0140040C0140001001400410014043
:1005740001280ED002D3022816D070472AB1012ACE
:1005840002D10E4B8A401A60704701220C4B8A40FC
:10059400F9E722B1012AF7D18A400A4BF3E70A4B63
:1005A40000FA01F11960704722B1012AECD18A40A6
:1005B400064BE8E70122064B8A40E4E710080140B5
:1005C40014080140100C0140140C014010100140AB
:1005D40014100140012818D003D3022820D0002091
:1005E4007047072904D8124B18688900C84009E0ED
:1005F4000F29F5D80F4BA1F108001B68C0B2800089
:1006040023FA00F000F00F007047072901D80A4BC5
:10061400EAE70F29E3D8094B08391868C9B2E4E7B7
:10062400072901D8064BDFE70F29D8D8054BF3E794
:100634000008014004080140000C0140040C014082
:10064400001001400410014010B50A460446FFF7AB
:10065400C1FF20F008000138C0B2022814D9012CCF
:100664000CD009D3022C0DD10B4B00E00B4B1868B6
:10067400D04000F0010010BD094BF8E7094BF6E744
:10068400094BF4E70020F6E7012CF9D0EED3022C55
:10069400F8D1064BEBE700BF081001400C080140FD
:1006A40008080140080C01400C0C01400C100140EA
:1006B40038B504460D46FFF7C7FF40B1012805D100
:1006C400204600222946FFF753FF002038BD20466C
:1006D40001222946FFF74CFF0120F7E7012807D044
:1006E40002D3022806D070470221022000F05CB831
:1006F4000321FAE70421F9E770B5094C0646A0681E
:1007040010B163694BB102200C234343E518E65250
:100714000023AA6069806B6070BD0120F4E700BF0C
:1007240068000020022807D80C23584300230349FB
:100734000A1893600B505360704700BF6800002094
:1007440008B50020FFF7EEFF0120FFF7EBFFBDE83F
:1007540008400220FFF7E6BFF8B500252E46094CF5
:100764006368EFB2012B07D1A368984723886660BA
:1007740013B93846FFF7D6FF0135032D04F10C04F5
:10078400EED1F8BD680000204FF480320121044B03
:100794001A60044A11601A689203FCD5704700BFBE
:1007A40000100240041002401F290ED8012807D06F
:1007B40002D302280AD07047054B1A68012001E0D1
:1007C400044B1A688840104318607047024BF4E7E2
:1007D400141002401C10024018100240064B1A6804
:1007E40022F002021A601A6822F001021A60002341
:1007F400024A13605360704710E000E014E000E028
:1008040008B5054B1B780BB9FFF7E8FF034B1B68D2
:100814009847034B1B6808BD64000020600000205B
:1008240010E000E000210846FFF742BF012100204C
:10083400FFF73EBF02210020FFF73ABF08B5FFF7DC
:10084400A3FF0020FFF74AFFFFF77AFF00210222EF
:100854000846FFF713FE022201210020FFF70EFED7
:10086400022200201146FFF709FE4FF47A710A4A6A
:100874000846FFF741FF094A4FF47A714FF4FA60D2
:10088400FFF73AFF064A4FF47A7140F6B830FFF7A3
:1008940033FFFFF761FFFCE729080008310800086F
:0408A4003908000807
:1008A8001C00002000000000000000000000000004
:0C08B800010203040607080900A24A041C
:040000050800010DE1
:00000001FF
